:020000020000FC
:0200000045C0F9
:10008C000FEF0DBF00E10EBF9924A0E1B1E0E8E64F
:10009C00F3E005910D9304910C93C2E1D1E0E0E6FD
:1000AC00F3E0059109930491088300000E948B00F2
:1000BC000000A0E3B1E0E2E6F3E005910D930491BA
:1000CC000C93C2E3D1E0E4E6F3E0059109930491CB
:1000DC00088300000E949C000000A0E5B1E0C3E58D
:1000EC00D1E0E6E6F3E004910D93099304910D93AE
:1000FC00099304910C93088300000E94AD0000004A
:10010C0000000E9403010000FFCFA0E1B1E0C2E1BA
:10011C00D1E0E0E2F1E01D914991410F41931C9136
:10012C004881411F419308F4B0830895A0E3B1E0E6
:10013C00C2E3D1E0E0E4F1E01D914991141B11936D
:10014C001C914881140B119308F4B0830895BF934C
:10015C00AF93DF93CF93FF93EF938F937F93992478
:10016C00A0E5B1E0C3E5D1E0E6E5F1E01D912D910C
:10017C003C9149915991688170E0ECE5429352931E
:10018C006293ECE5413099F0C6F00291069500833C
:10019C0028F1E635B9F30291069538F43196808151
:1001AC008068808331970083F4CF0083F2CF00689E
:1001BC0000837831C9F00C94CA007395E9E502917B
:1001CC00010F00830291021F00830291031F008321
:1001DC00ECE5E894442728F00C94CB0068940C943C
:1001EC00CF0041E00C94CB007F918F91EF91FF9168
:1001FC00CF91DF91AF91BF9108950F9304E6A0E0EA
:10020C00B1E00F9300E00D930F910A95D1F70F9188
:10021C00A0E3B1E0E8E6F3E005910D9304910C93B3
:10022C00C2E3D1E0EAE6F3E0059109930491088377
:10023C007DDFA0E1B1E0E0E4F1E001910D930081FC
:10024C000C93C2E1D1E0ECE6F3E005910993049143
:10025C0008835BDFA0E5B1E0C3E5D1E0E0E2F1E0CB
:10026C0001910D93099301910D93099300810C93C6
:10027C00088301D008951F934F931F920F929F9262
:10028C00BF93AF93DF93CF93FF93EF938F937F93B2
:10029C009924C0E5D1E0E6E5F1E082E0A3E5B1E028
:1002AC0072E01D914881149F11914191010E141E11
:1002BC001081191D10831292029231967A9589F74A
:1002CC00319721968A9551F77F918F91EF91FF91FC
:1002DC00CF91DF91AF91BF919F900F901F904F9155
:1002EC001F9108951F934F931F920F929F92BF934C
:1002FC00AF93DF93CF93FF93EF938F937F939924D7
:10030C00C2E0D1E0E4E0F1E082E0A0E0B1E072E034
:10031C001D914881149F11914191010E141E108161
:10032C00191D10831292029231967A9589F73197A2
:10033C0021968A9551F77F918F91EF91FF91CF91F3
:10034C00DF91AF91BF919F900F901F904F911F9194
:10035C0008950895FFFFB9FC20E4FF00BAFC1920B2
:02036C00BB21B3
:00000001FF
