:020000020000FC
:0200000045C0F9
:080004007ED0189568D0189514
:020074001895DD
:10008C000FEF0DBF00E10EBF0FEF07BB00E008BB89
:10009C0000E001BB0FEF02BB0AE000936A0000E036
:1000AC000ABF03E009BF0BE0009389000CED00933D
:1000BC00880000E000938B0004E000938A0004E0C9
:1000CC0000937D0090E020E07894FFCF18950F937B
:1000DC007F930FB70F9300E008BB3CD000E208BB46
:1000EC0039D000E608BB1BD003E008BF0F910FBF4F
:1000FC007F910F9108950F937F930FB70F9300E0AB
:10010C0008BB28D000E408BB25D000E608BB07D00C
:10011C0003E008BF0F910FBF7F910F9108958F934C
:10012C009F938FEF9EE18A95F1F78FEF9A95D9F710
:10013C009F918F9108957F938F939F9390EE8DEE67
:10014C008A95F1F79A95D9F77A95C1F79F918F9186
:10015C007F9108950BE0009389000CED00938800CB
:10016C0004E000917C0002FFFCCF04E000937C00D3
:02017C000895E4
:00000001FF
