:020000020000FC
:0200000045C0F9
:10008C000FEF0DBF00E10EBF0FEF07BB00E008BB89
:10009C000CE001BB03EF02BB03EF02BB03E00093D8
:1000AC00980000E40093990002E000939B0008E0A4
:1000BC0000939A000EE000939D0000B3037F00FFB5
:1000CC0016D001FF23D004FF34D005FF45D006FF26
:1000DC0056D007FF67D0F1CF0FB70F9300919B005D
:1000EC0005FFFACF10939C000F910FBF08950F934B
:1000FC000FB70F931F932F931AE1EEDF10EAECDF8B
:10010C002F911F910F910FBF0F9108950F930FB760
:10011C000F931F932F931AE1DFDF21E054D010E9E6
:10012C00DBDF21E050D02F911F910F910FBF0F916A
:10013C0008950F930FB70F931F932F931AE1CCDFF2
:10014C0021E041D010EBC8DF21E03DD02F911F9171
:10015C000F910FBF0F9108950F930FB70F931F932C
:10016C002F931AE1B9DF21E02ED010E8B5DF21E0A2
:10017C002AD02F911F910F910FBF0F9108950F93BC
:10018C000FB70F931F932F931AE1A6DF22E31BD017
:10019C0018ECA2DF21E017D02F911F910F910FBF08
:1001AC000F9108950F930FB70F931F932F931AE18D
:1001BC0093DF18EF91DF22E306D02F911F910F915F
:1001CC000FBF0F9108952F933F934F9340EE3DEE49
:1001DC003A95F1F74A95D9F72A95C1F74F913F9186
:0401EC002F910895B2
:00000001FF
