:020000020000FC
:0200000045C0F9
:10000400BFD01895CCD01895DAD01895F7D018959C
:0400740039D01895D2
:10008C000FEF0DBF00E10EBF0FEF07BB00E008BB89
:10009C0000E0502E01BB0FEF02BB0AEA00936A008E
:1000AC000FE009BF09E703BF09E705BD0BE00093AB
:1000BC0089000CED0093880000E000938B0004E0B5
:1000CC0000938A0004E000937D0000E608BBC0D0DA
:1000DC0090E080E0082B08BB7894FFCF7F930F93C0
:1000EC008F930FB70F939F93052D09D00395502E27
:1000FC009F910F910FBF8F910F917F910895A0E069
:10010C00B1E070E007D107FD71E007FF2DD007FDCE
:10011C0030D006FD71E006FF27D006FD2AD005FD84
:10012C0071E005FF21D005FD24D004FD71E004FF32
:10013C001BD004FD1ED003FD71E003FF15D003FDA1
:10014C0018D002FD71E002FF0FD002FD12D001FDAC
:10015C0071E001FF09D001FD0CD071E000FF04D06B
:10016C0000FD07D0B4D00895713011F480E38D9365
:10017C00089581E38D9308950F938F9308B30F70B7
:10018C000F3009F055240FEF01BF03BD0FE608BB7C
:10019C008F910F9108950F9308B30F70003009F0F1
:1001AC00552480E08F9300E001BF03BD00EF08BB36
:1001BC008F910F9108950F938F930FB70F939F9378
:1001CC0088B3082F8F70007F8F3059F055240F9310
:1001DC0001E191B7900F91BF93BD0F918395802B47
:1001EC0088BB27D00FE008BF9F910F910FBF8F9155
:1001FC000F9108950F938F930FB70F939F9388B31D
:10020C00082F8F70007F803059F055240F9301E137
:10021C0091B7901B91BF93BD0F918A95802B88BB92
:10022C0008D00FE008BF9F910F910FBF8F910F91D6
:10023C0008957F938F939F9390EE8EE18A95F1F7BB
:10024C009A95D9F77A95C1F79F918F917F910895DF
:10025C000F930FB70F931F9300E008BB0FEF07BB73
:10026C0000E002BB00E001BB00E00093620008E08C
:10027C000093610000E50DB901E00EB900E805BF7F
:10028C0002E400936D0000E800936C0000E00BB9F1
:10029C0008E10AB906E00093950000E00093900095
:1002AC0007E609B906E01AEFBFD00A95E1F708E3B3
:1002BC0097D008E095D001E093D006E091D00CE007
:1002CC008FD028D01F910F910FBF0F91089502D09E
:1002DC0011D008950F93EF93FF932F933F93E0E08A
:1002EC00F1E030E86BD076D03F912F91FF91EF91F8
:1002FC000F9108950F93EF93FF932F933F93E0E1AA
:10030C00F1E030EC5BD066D03F912F91FF91EF91F3
:10031C000F91089502D011D008950F933F932F930E
:10032C00EF93FF9330E84AD0E0E0F1E04CD0FF913E
:10033C00EF912F913F910F9108950F933F932F932E
:10034C00EF93FF9330EC3AD0E0E1F1E03CD0FF9139
:10035C00EF912F913F910F9108950F933F932F930E
:10036C00283250F4313011F430E803C0323021F42B
:10037C0030EC320F23D042D02F913F910F91089542
:10038C000F936F935F93BF93AF93043618F023E0F2
:10039C00139607C00A3018F022E0129602C011968C
:1003AC0021E04AD000E3060F0E93052F0030C9F769
:1003BC00AF91BF915F916F910F9108950F93032FA0
:1003CC000FD00F91089500E220E1019317D02A95E8
:1003DC00E1F7089520E1019111D02A95E1F70895F4
:1003EC004F931F9340E013D00F9302E01DEC1CD0F1
:1003FC000A95E1F70F911F914F9108954F931F9319
:10040C0041E005D010E110D01F914F9108954FB9E4
:10041C0012E00AD00FB912E007D018E01093620076
:10042C0010E01093620008950F9309E40A95F1F718
:10043C001A95D9F70F9108950F92502F56955695FE
:10044C00500F5695500F569556955695500F5695EC
:10045C00500F569556955695500F5695500F5695DC
:10046C00569556955695652F660F660F650F660F58
:10047C00062E602F60196A3018F053956A50FBCF26
:04048C000F90089530
:00000001FF
