:020000020000FC
:0200000045C0F9
:1000040081D018955DD018959FD01895A7D01895D4
:10008C000FEF0DBF00E10EBF00E008BB0FEF07BB89
:10009C000FEF02BB00E001BB0AEA00936A0000E02C
:1000AC000ABF0FE009BFB0D055D04AD0789400EF0A
:1000BC0008BB00E608BBFBCF0F937F930FB70F93E2
:1000CC009F9390E36CD09F9100E008BB74E64CD0FA
:1000DC009F9391E364D09F9100E208BB74E644D0F7
:1000EC009F9392E35CD09F9100E608BB4CD003E059
:1000FC0008BF0F910FBF7F910F9108950F937F93BE
:10010C000FB70F938F9380E355D08F9100E008BB0E
:10011C0074E62AD08F9381E34DD08F9100E408BB15
:10012C0074E622D08F9382E345D08F9100E608BB12
:10013C002AD003E008BF0F910FBF7F910F91089554
:10014C000F938F9380E336D08F911DD003E008BFBF
:10015C000F9108950F939F9390E321D09F9113D00B
:10016C0003E008BF0F9108957F938F939F9390EEB8
:10017C008DEE8A95F1F79A95D9F77A95C1F79F91FB
:10018C008F917F9108958F939F938FEF9EE18A9526
:10019C00F1F78FEF9A95D9F79F918F9108950F935F
:1001AC0014D0C0E0D1E004E0C00F092F08836ED05A
:1001BC000F9108950F9309D0C0E0D1E00FE0C00F6C
:1001CC00082F088363D00F9108950F93C0E0D1E0FE
:1001DC00ECE0F2E0059109930591099305910993DF
:1001EC000591099307E0C00FE0E1F2E00591099356
:1001FC000591099305910993059109930F91089520
:10020C004C573A2052573A200F930FB70F931F9326
:10021C0000E008BB0FEF07BB00E002BB00E001BB36
:10022C0000E00093620008E00093610000E50DB966
:10023C0001E00EB900E805BF02E400936D0000E890
:10024C0000936C0000E00BB908E10AB906E00093DA
:10025C00950000E00093900007E609B906E01AEF5C
:10026C00BFD00A95E1F708E397D008E095D001E0FC
:10027C0093D006E091D00CE08FD028D01F910F9135
:10028C000FBF0F91089502D011D008950F93EF93E3
:10029C00FF932F933F93E0E0F1E030E86BD076D002
:1002AC003F912F91FF91EF910F9108950F93EF9341
:1002BC00FF932F933F93E0E1F1E030EC5BD066D0FD
:1002CC003F912F91FF91EF910F91089502D011D092
:1002DC0008950F933F932F93EF93FF9330E84AD0F9
:1002EC00E0E0F1E04CD0FF91EF912F913F910F9115
:1002FC0008950F933F932F93EF93FF9330EC3AD0E5
:10030C00E0E1F1E03CD0FF91EF912F913F910F9103
:10031C0008950F933F932F93283250F4313011F4FA
:10032C0030E803C0323021F430EC320F23D042D00D
:10033C002F913F910F9108950F936F935F93BF93FC
:10034C00AF93043618F023E0139607C00A3018F068
:10035C0022E0129602C0119621E04AD000E3060F6B
:10036C000E93052F0030C9F7AF91BF915F916F913C
:10037C000F9108950F93032F0FD00F91089500E262
:10038C0020E1019317D02A95E1F7089520E101911E
:10039C0011D02A95E1F708954F931F9340E013D0A5
:1003AC000F9302E01DEC1CD00A95E1F70F911F9101
:1003BC004F9108954F931F9341E005D010E110D059
:1003CC001F914F9108954FB912E00AD00FB912E066
:1003DC0007D018E01093620010E0109362000895AB
:1003EC000F9309E40A95F1F71A95D9F70F9108952F
:1003FC000F92502F56955695500F5695500F569567
:10040C0056955695500F5695500F569556955695A0
:10041C00500F5695500F5695569556955695652FE7
:10042C00660F660F650F660F062E602F60196A3017
:0C043C0018F053956A50FBCF0F90089504
:00000001FF
